{
  "contractName": "Transaction",
  "abi": [
    {
      "inputs": [],
      "stateMutability": "nonpayable",
      "type": "constructor"
    },
    {
      "anonymous": false,
      "inputs": [
        {
          "indexed": false,
          "internalType": "address",
          "name": "from",
          "type": "address"
        },
        {
          "indexed": false,
          "internalType": "address",
          "name": "receiver",
          "type": "address"
        },
        {
          "indexed": false,
          "internalType": "string",
          "name": "user_id",
          "type": "string"
        },
        {
          "indexed": false,
          "internalType": "string",
          "name": "election_id",
          "type": "string"
        },
        {
          "indexed": false,
          "internalType": "string",
          "name": "candidate_id",
          "type": "string"
        },
        {
          "indexed": false,
          "internalType": "uint256",
          "name": "timestamp",
          "type": "uint256"
        }
      ],
      "name": "Transfer",
      "type": "event"
    },
    {
      "inputs": [],
      "name": "admin",
      "outputs": [
        {
          "internalType": "address",
          "name": "",
          "type": "address"
        }
      ],
      "stateMutability": "view",
      "type": "function",
      "constant": true
    },
    {
      "inputs": [],
      "name": "endTime",
      "outputs": [
        {
          "internalType": "uint256",
          "name": "",
          "type": "uint256"
        }
      ],
      "stateMutability": "view",
      "type": "function",
      "constant": true
    },
    {
      "inputs": [],
      "name": "startTime",
      "outputs": [
        {
          "internalType": "uint256",
          "name": "",
          "type": "uint256"
        }
      ],
      "stateMutability": "view",
      "type": "function",
      "constant": true
    },
    {
      "inputs": [
        {
          "internalType": "uint256",
          "name": "_startTime",
          "type": "uint256"
        },
        {
          "internalType": "uint256",
          "name": "_endTime",
          "type": "uint256"
        }
      ],
      "name": "setElectionPeriod",
      "outputs": [],
      "stateMutability": "nonpayable",
      "type": "function"
    },
    {
      "inputs": [
        {
          "internalType": "address payable",
          "name": "receiver",
          "type": "address"
        },
        {
          "internalType": "string",
          "name": "user_id",
          "type": "string"
        },
        {
          "internalType": "string",
          "name": "election_id",
          "type": "string"
        },
        {
          "internalType": "string",
          "name": "candidate_id",
          "type": "string"
        }
      ],
      "name": "addToBlockchain",
      "outputs": [],
      "stateMutability": "nonpayable",
      "type": "function"
    },
    {
      "inputs": [],
      "name": "getAllTransaction",
      "outputs": [
        {
          "components": [
            {
              "internalType": "address",
              "name": "from",
              "type": "address"
            },
            {
              "internalType": "address",
              "name": "receiver",
              "type": "address"
            },
            {
              "internalType": "string",
              "name": "user_id",
              "type": "string"
            },
            {
              "internalType": "string",
              "name": "election_id",
              "type": "string"
            },
            {
              "internalType": "string",
              "name": "candidate_id",
              "type": "string"
            },
            {
              "internalType": "uint256",
              "name": "timestamp",
              "type": "uint256"
            }
          ],
          "internalType": "struct Transaction.TransactionStruct[]",
          "name": "",
          "type": "tuple[]"
        }
      ],
      "stateMutability": "view",
      "type": "function",
      "constant": true
    },
    {
      "inputs": [],
      "name": "getTransactionCount",
      "outputs": [
        {
          "internalType": "uint256",
          "name": "",
          "type": "uint256"
        }
      ],
      "stateMutability": "view",
      "type": "function",
      "constant": true
    }
  ],
  "bytecode": "0x608060405234801561001057600080fd5b5033600460006101000a81548173ffffffffffffffffffffffffffffffffffffffff021916908373ffffffffffffffffffffffffffffffffffffffff1602179055504260028190555063bbf81e00426100699190610074565b600381905550610103565b600061007f826100ca565b915061008a836100ca565b9250827fffffffffffffffffffffffffffffffffffffffffffffffffffffffffffffffff038211156100bf576100be6100d4565b5b828201905092915050565b6000819050919050565b7f4e487b7100000000000000000000000000000000000000000000000000000000600052601160045260246000fd5b61111d806101126000396000f3fe608060405234801561001057600080fd5b506004361061007d5760003560e01c806378e979251161005b57806378e97925146100da578063add6415d146100f8578063ecfdf59514610116578063f851a440146101325761007d565b806325ecc6e0146100825780632e7700f01461009e5780633197cbb6146100bc575b600080fd5b61009c600480360381019061009791906108ce565b610150565b005b6100a66103af565b6040516100b39190610deb565b60405180910390f35b6100c46103b8565b6040516100d19190610deb565b60405180910390f35b6100e26103be565b6040516100ef9190610deb565b60405180910390f35b6101006103c4565b60405161010d9190610d49565b60405180910390f35b610130600480360381019061012b9190610979565b61068f565b005b61013a610773565b6040516101479190610cb8565b60405180910390f35b600254421015610195576040517f08c379a000000000000000000000000000000000000000000000000000000000815260040161018c90610dcb565b60405180910390fd5b6003544211156101da576040517f08c379a00000000000000000000000000000000000000000000000000000000081526004016101d190610dab565b60405180910390fd5b60016000808282546101ec9190610ecd565b9250508190555060016040518060c001604052803373ffffffffffffffffffffffffffffffffffffffff1681526020018673ffffffffffffffffffffffffffffffffffffffff16815260200185815260200184815260200183815260200142815250908060018154018082558091505060019003906000526020600020906006020160009091909190915060008201518160000160006101000a81548173ffffffffffffffffffffffffffffffffffffffff021916908373ffffffffffffffffffffffffffffffffffffffff16021790555060208201518160010160006101000a81548173ffffffffffffffffffffffffffffffffffffffff021916908373ffffffffffffffffffffffffffffffffffffffff1602179055506040820151816002019080519060200190610321929190610799565b50606082015181600301908051906020019061033e929190610799565b50608082015181600401908051906020019061035b929190610799565b5060a0820151816005015550507fc2a008061ffd24e1e90903faea6d67542ba54406f86b22a777a70e56274139073385858585426040516103a196959493929190610cd3565b60405180910390a150505050565b60008054905090565b60035481565b60025481565b60606001805480602002602001604051908101604052809291908181526020016000905b8282101561068657838290600052602060002090600602016040518060c00160405290816000820160009054906101000a900473ffffffffffffffffffffffffffffffffffffffff1673ffffffffffffffffffffffffffffffffffffffff1673ffffffffffffffffffffffffffffffffffffffff1681526020016001820160009054906101000a900473ffffffffffffffffffffffffffffffffffffffff1673ffffffffffffffffffffffffffffffffffffffff1673ffffffffffffffffffffffffffffffffffffffff1681526020016002820180546104c790610fe9565b80601f01602080910402602001604051908101604052809291908181526020018280546104f390610fe9565b80156105405780601f1061051557610100808354040283529160200191610540565b820191906000526020600020905b81548152906001019060200180831161052357829003601f168201915b5050505050815260200160038201805461055990610fe9565b80601f016020809104026020016040519081016040528092919081815260200182805461058590610fe9565b80156105d25780601f106105a7576101008083540402835291602001916105d2565b820191906000526020600020905b8154815290600101906020018083116105b557829003601f168201915b505050505081526020016004820180546105eb90610fe9565b80601f016020809104026020016040519081016040528092919081815260200182805461061790610fe9565b80156106645780601f1061063957610100808354040283529160200191610664565b820191906000526020600020905b81548152906001019060200180831161064757829003601f168201915b50505050508152602001600582015481525050815260200190600101906103e8565b50505050905090565b600460009054906101000a900473ffffffffffffffffffffffffffffffffffffffff1673ffffffffffffffffffffffffffffffffffffffff163373ffffffffffffffffffffffffffffffffffffffff161461071f576040517f08c379a000000000000000000000000000000000000000000000000000000000815260040161071690610d8b565b60405180910390fd5b808210610761576040517f08c379a000000000000000000000000000000000000000000000000000000000815260040161075890610d6b565b60405180910390fd5b81600281905550806003819055505050565b600460009054906101000a900473ffffffffffffffffffffffffffffffffffffffff1681565b8280546107a590610fe9565b90600052602060002090601f0160209004810192826107c7576000855561080e565b82601f106107e057805160ff191683800117855561080e565b8280016001018555821561080e579182015b8281111561080d5782518255916020019190600101906107f2565b5b50905061081b919061081f565b5090565b5b80821115610838576000816000905550600101610820565b5090565b600061084f61084a84610e37565b610e06565b90508281526020810184848401111561086757600080fd5b610872848285610fa7565b509392505050565b600081359050610889816110b9565b92915050565b600082601f8301126108a057600080fd5b81356108b084826020860161083c565b91505092915050565b6000813590506108c8816110d0565b92915050565b600080600080608085870312156108e457600080fd5b60006108f28782880161087a565b945050602085013567ffffffffffffffff81111561090f57600080fd5b61091b8782880161088f565b935050604085013567ffffffffffffffff81111561093857600080fd5b6109448782880161088f565b925050606085013567ffffffffffffffff81111561096157600080fd5b61096d8782880161088f565b91505092959194509250565b6000806040838503121561098c57600080fd5b600061099a858286016108b9565b92505060206109ab858286016108b9565b9150509250929050565b60006109c18383610c03565b905092915050565b6109d281610f71565b82525050565b6109e181610f23565b82525050565b6109f081610f23565b82525050565b6000610a0182610e77565b610a0b8185610e9a565b935083602082028501610a1d85610e67565b8060005b85811015610a595784840389528151610a3a85826109b5565b9450610a4583610e8d565b925060208a01995050600181019050610a21565b50829750879550505050505092915050565b6000610a7682610e82565b610a808185610eab565b9350610a90818560208601610fb6565b610a99816110a8565b840191505092915050565b6000610aaf82610e82565b610ab98185610ebc565b9350610ac9818560208601610fb6565b610ad2816110a8565b840191505092915050565b6000610aea602283610ebc565b91507f53746172742074696d65206d757374206265206265666f726520656e6420746960008301527f6d650000000000000000000000000000000000000000000000000000000000006020830152604082019050919050565b6000610b50601883610ebc565b91507f4f6e6c792061646d696e2063616e2063616c6c207468697300000000000000006000830152602082019050919050565b6000610b90601a83610ebc565b91507f456c656374696f6e2068617320616c726561647920656e6465640000000000006000830152602082019050919050565b6000610bd0601c83610ebc565b91507f456c656374696f6e20686173206e6f74207374617274656420796574000000006000830152602082019050919050565b600060c083016000830151610c1b60008601826109d8565b506020830151610c2e60208601826109d8565b5060408301518482036040860152610c468282610a6b565b91505060608301518482036060860152610c608282610a6b565b91505060808301518482036080860152610c7a8282610a6b565b91505060a0830151610c8f60a0860182610c9a565b508091505092915050565b610ca381610f67565b82525050565b610cb281610f67565b82525050565b6000602082019050610ccd60008301846109e7565b92915050565b600060c082019050610ce860008301896109e7565b610cf560208301886109c9565b8181036040830152610d078187610aa4565b90508181036060830152610d1b8186610aa4565b90508181036080830152610d2f8185610aa4565b9050610d3e60a0830184610ca9565b979650505050505050565b60006020820190508181036000830152610d6381846109f6565b905092915050565b60006020820190508181036000830152610d8481610add565b9050919050565b60006020820190508181036000830152610da481610b43565b9050919050565b60006020820190508181036000830152610dc481610b83565b9050919050565b60006020820190508181036000830152610de481610bc3565b9050919050565b6000602082019050610e006000830184610ca9565b92915050565b6000604051905081810181811067ffffffffffffffff82111715610e2d57610e2c611079565b5b8060405250919050565b600067ffffffffffffffff821115610e5257610e51611079565b5b601f19601f8301169050602081019050919050565b6000819050602082019050919050565b600081519050919050565b600081519050919050565b6000602082019050919050565b600082825260208201905092915050565b600082825260208201905092915050565b600082825260208201905092915050565b6000610ed882610f67565b9150610ee383610f67565b9250827fffffffffffffffffffffffffffffffffffffffffffffffffffffffffffffffff03821115610f1857610f1761101b565b5b828201905092915050565b6000610f2e82610f47565b9050919050565b6000610f4082610f47565b9050919050565b600073ffffffffffffffffffffffffffffffffffffffff82169050919050565b6000819050919050565b6000610f7c82610f83565b9050919050565b6000610f8e82610f95565b9050919050565b6000610fa082610f47565b9050919050565b82818337600083830152505050565b60005b83811015610fd4578082015181840152602081019050610fb9565b83811115610fe3576000848401525b50505050565b6000600282049050600182168061100157607f821691505b602082108114156110155761101461104a565b5b50919050565b7f4e487b7100000000000000000000000000000000000000000000000000000000600052601160045260246000fd5b7f4e487b7100000000000000000000000000000000000000000000000000000000600052602260045260246000fd5b7f4e487b7100000000000000000000000000000000000000000000000000000000600052604160045260246000fd5b6000601f19601f8301169050919050565b6110c281610f35565b81146110cd57600080fd5b50565b6110d981610f67565b81146110e457600080fd5b5056fea2646970667358221220b07e8357dc4d21635f1a7374a95ddcef5173423f0e71ebfcc8de220af33b091064736f6c63430008000033",
  "immutableReferences": {},
  "source": "// SPDX-License-Identifier: UNLICENSED\npragma solidity ^0.8.0;\n\ncontract Transaction{\n    uint256 transactionCounter;\n\n    event Transfer(address from,address receiver,string user_id,string election_id,string candidate_id,uint timestamp);\n\n    struct TransactionStruct {\n        address from;\n        address receiver;\n        string user_id;\n        string election_id;\n        string candidate_id;\n        uint timestamp;\n    }\n\n    TransactionStruct[] transactions;\n    uint256 public startTime;\n    uint256 public endTime;\n    address public admin;\n\n    constructor() {\n        admin = msg.sender;\n        // Default: election starts now and ends in 100 years for initial demo\n        startTime = block.timestamp;\n        endTime = block.timestamp + 3153600000; \n    }\n\n    modifier onlyDuringElection() {\n        require(block.timestamp >= startTime, \"Election has not started yet\");\n        require(block.timestamp <= endTime, \"Election has already ended\");\n        _;\n    }\n\n    modifier onlyAdmin() {\n        require(msg.sender == admin, \"Only admin can call this\");\n        _;\n    }\n\n    function setElectionPeriod(uint256 _startTime, uint256 _endTime) public onlyAdmin {\n        require(_startTime < _endTime, \"Start time must be before end time\");\n        startTime = _startTime;\n        endTime = _endTime;\n    }\n\n    function addToBlockchain(address payable receiver,string memory user_id,string memory election_id,string memory candidate_id) public onlyDuringElection {\n        transactionCounter+=1;\n        transactions.push(TransactionStruct(msg.sender,receiver,user_id,election_id,candidate_id,block.timestamp));\n\n        emit Transfer(msg.sender,receiver,user_id,election_id,candidate_id,block.timestamp);\n    }\n\n    function getAllTransaction() public view returns (TransactionStruct[] memory){\n        return transactions;\n    }\n\n    function getTransactionCount() public view returns (uint256){\n        return transactionCounter;\n    }\n\n}",
  "sourcePath": "C:\\Users\\MOHANA BODDAPU\\OneDrive\\Desktop\\MP 4-2\\E-Voting\\E-Voting-System-Using-Blockchain-master\\smart_contract\\contracts\\Transaction.sol",
  "compiler": {
    "name": "solc",
    "version": "0.8.0+commit.c7dfd78e.Emscripten.clang"
  },
  "schemaVersion": "3.4.16",
  "updatedAt": "2026-03-22T14:35:37.471Z",
  "networkType": "ethereum",
  "devdoc": {
    "kind": "dev",
    "methods": {},
    "version": 1
  },
  "userdoc": {
    "kind": "user",
    "methods": {},
    "version": 1
  }
}