{
  "contractName": "Transaction",
  "abi": [
    {
      "inputs": [],
      "stateMutability": "nonpayable",
      "type": "constructor"
    },
    {
      "anonymous": false,
      "inputs": [
        {
          "indexed": false,
          "internalType": "address",
          "name": "from",
          "type": "address"
        },
        {
          "indexed": false,
          "internalType": "address",
          "name": "receiver",
          "type": "address"
        },
        {
          "indexed": false,
          "internalType": "string",
          "name": "user_id",
          "type": "string"
        },
        {
          "indexed": false,
          "internalType": "string",
          "name": "election_id",
          "type": "string"
        },
        {
          "indexed": false,
          "internalType": "string",
          "name": "candidate_id",
          "type": "string"
        },
        {
          "indexed": false,
          "internalType": "uint256",
          "name": "timestamp",
          "type": "uint256"
        }
      ],
      "name": "Transfer",
      "type": "event"
    },
    {
      "inputs": [],
      "name": "admin",
      "outputs": [
        {
          "internalType": "address",
          "name": "",
          "type": "address"
        }
      ],
      "stateMutability": "view",
      "type": "function",
      "constant": true
    },
    {
      "inputs": [],
      "name": "endTime",
      "outputs": [
        {
          "internalType": "uint256",
          "name": "",
          "type": "uint256"
        }
      ],
      "stateMutability": "view",
      "type": "function",
      "constant": true
    },
    {
      "inputs": [],
      "name": "startTime",
      "outputs": [
        {
          "internalType": "uint256",
          "name": "",
          "type": "uint256"
        }
      ],
      "stateMutability": "view",
      "type": "function",
      "constant": true
    },
    {
      "inputs": [
        {
          "internalType": "uint256",
          "name": "_startTime",
          "type": "uint256"
        },
        {
          "internalType": "uint256",
          "name": "_endTime",
          "type": "uint256"
        }
      ],
      "name": "setElectionPeriod",
      "outputs": [],
      "stateMutability": "nonpayable",
      "type": "function"
    },
    {
      "inputs": [
        {
          "internalType": "address payable",
          "name": "receiver",
          "type": "address"
        },
        {
          "internalType": "string",
          "name": "user_id",
          "type": "string"
        },
        {
          "internalType": "string",
          "name": "election_id",
          "type": "string"
        },
        {
          "internalType": "string",
          "name": "candidate_id",
          "type": "string"
        }
      ],
      "name": "addToBlockchain",
      "outputs": [],
      "stateMutability": "nonpayable",
      "type": "function"
    },
    {
      "inputs": [],
      "name": "getAllTransaction",
      "outputs": [
        {
          "components": [
            {
              "internalType": "address",
              "name": "from",
              "type": "address"
            },
            {
              "internalType": "address",
              "name": "receiver",
              "type": "address"
            },
            {
              "internalType": "string",
              "name": "user_id",
              "type": "string"
            },
            {
              "internalType": "string",
              "name": "election_id",
              "type": "string"
            },
            {
              "internalType": "string",
              "name": "candidate_id",
              "type": "string"
            },
            {
              "internalType": "uint256",
              "name": "timestamp",
              "type": "uint256"
            }
          ],
          "internalType": "struct Transaction.TransactionStruct[]",
          "name": "",
          "type": "tuple[]"
        }
      ],
      "stateMutability": "view",
      "type": "function",
      "constant": true
    },
    {
      "inputs": [],
      "name": "getTransactionCount",
      "outputs": [
        {
          "internalType": "uint256",
          "name": "",
          "type": "uint256"
        }
      ],
      "stateMutability": "view",
      "type": "function",
      "constant": true
    }
  ],
  "bytecode": "0x608060405234801561001057600080fd5b50600480546001600160a01b031916331790554260028190556100379063bbf81e0061003f565b600355610063565b6000821982111561005e57634e487b7160e01b81526011600452602481fd5b500190565b610aa6806100726000396000f3fe608060405234801561001057600080fd5b506004361061007d5760003560e01c806378e979251161005b57806378e97925146100bd578063add6415d146100c5578063ecfdf595146100da578063f851a440146100ed5761007d565b806325ecc6e0146100825780632e7700f0146100975780633197cbb6146100b5575b600080fd5b6100956100903660046106b6565b610102565b005b61009f6102e5565b6040516100ac91906109f2565b60405180910390f35b61009f6102eb565b61009f6102f1565b6100cd6102f7565b6040516100ac919061083e565b6100956100e8366004610758565b610539565b6100f561058d565b6040516100ac91906107c4565b60025442101561012d5760405162461bcd60e51b8152600401610124906109bb565b60405180910390fd5b60035442111561014f5760405162461bcd60e51b815260040161012490610984565b600160008082825461016191906109fb565b90915550506040805160c0810182523381526001600160a01b03868116602080840191825293830187815260608401879052608084018690524260a0850152600180548082018255600091909152845160069091027fb10e2d527612073b26eecdfd717e6a320cf44b4afac2b0732d9fcbe2b7fa0cf6810180549286166001600160a01b031993841617815593517fb10e2d527612073b26eecdfd717e6a320cf44b4afac2b0732d9fcbe2b7fa0cf7820180549190961692169190911790935551805193949193610259937fb10e2d527612073b26eecdfd717e6a320cf44b4afac2b0732d9fcbe2b7fa0cf80192919091019061059c565b506060820151805161027591600384019160209091019061059c565b506080820151805161029191600484019160209091019061059c565b5060a0820151816005015550507fc2a008061ffd24e1e90903faea6d67542ba54406f86b22a777a70e56274139073385858585426040516102d7969594939291906107d8565b60405180910390a150505050565b60005490565b60035481565b60025481565b60606001805480602002602001604051908101604052809291908181526020016000905b828210156105305760008481526020908190206040805160c0810182526006860290920180546001600160a01b039081168452600182015416938301939093526002830180549293929184019161037190610a1f565b80601f016020809104026020016040519081016040528092919081815260200182805461039d90610a1f565b80156103ea5780601f106103bf576101008083540402835291602001916103ea565b820191906000526020600020905b8154815290600101906020018083116103cd57829003601f168201915b5050505050815260200160038201805461040390610a1f565b80601f016020809104026020016040519081016040528092919081815260200182805461042f90610a1f565b801561047c5780601f106104515761010080835404028352916020019161047c565b820191906000526020600020905b81548152906001019060200180831161045f57829003601f168201915b5050505050815260200160048201805461049590610a1f565b80601f01602080910402602001604051908101604052809291908181526020018280546104c190610a1f565b801561050e5780601f106104e35761010080835404028352916020019161050e565b820191906000526020600020905b8154815290600101906020018083116104f157829003601f168201915b505050505081526020016005820154815250508152602001906001019061031b565b50505050905090565b6004546001600160a01b031633146105635760405162461bcd60e51b81526004016101249061094d565b8082106105825760405162461bcd60e51b81526004016101249061090b565b600291909155600355565b6004546001600160a01b031681565b8280546105a890610a1f565b90600052602060002090601f0160209004810192826105ca5760008555610610565b82601f106105e357805160ff1916838001178555610610565b82800160010185558215610610579182015b828111156106105782518255916020019190600101906105f5565b5061061c929150610620565b5090565b5b8082111561061c5760008155600101610621565b600082601f830112610645578081fd5b813567ffffffffffffffff8082111561066057610660610a5a565b604051601f8301601f19168101602001828111828210171561068457610684610a5a565b60405282815284830160200186101561069b578384fd5b82602086016020830137918201602001929092529392505050565b600080600080608085870312156106cb578384fd5b84356001600160a01b03811681146106e1578485fd5b9350602085013567ffffffffffffffff808211156106fd578485fd5b61070988838901610635565b9450604087013591508082111561071e578384fd5b61072a88838901610635565b9350606087013591508082111561073f578283fd5b5061074c87828801610635565b91505092959194509250565b6000806040838503121561076a578182fd5b50508035926020909101359150565b60008151808452815b8181101561079e57602081850181015186830182015201610782565b818111156107af5782602083870101525b50601f01601f19169290920160200192915050565b6001600160a01b0391909116815260200190565b6001600160a01b0387811682528616602082015260c06040820181905260009061080490830187610779565b82810360608401526108168187610779565b9050828103608084015261082a8186610779565b9150508260a0830152979650505050505050565b60208082528251828201819052600091906040908185019080840286018301878501865b838110156108fd57888303603f19018552815180516001600160a01b0390811685528882015116888501528681015160c0888601819052906108a682870182610779565b915050606080830151868303828801526108c08382610779565b92505050608080830151868303828801526108db8382610779565b60a0948501519790940196909652505094870194925090860190600101610862565b509098975050505050505050565b60208082526022908201527f53746172742074696d65206d757374206265206265666f726520656e642074696040820152616d6560f01b606082015260800190565b60208082526018908201527f4f6e6c792061646d696e2063616e2063616c6c20746869730000000000000000604082015260600190565b6020808252601a908201527f456c656374696f6e2068617320616c726561647920656e646564000000000000604082015260600190565b6020808252601c908201527f456c656374696f6e20686173206e6f7420737461727465642079657400000000604082015260600190565b90815260200190565b60008219821115610a1a57634e487b7160e01b81526011600452602481fd5b500190565b600281046001821680610a3357607f821691505b60208210811415610a5457634e487b7160e01b600052602260045260246000fd5b50919050565b634e487b7160e01b600052604160045260246000fdfea2646970667358221220de66b2efa1ec57f8ce00f1cf48e2548098ae3f0817366dd71841409429c22b9c64736f6c63430008000033",
  "immutableReferences": {},
  "source": "// SPDX-License-Identifier: UNLICENSED\npragma solidity ^0.8.0;\n\ncontract Transaction{\n    uint256 transactionCounter;\n\n    event Transfer(address from,address receiver,string user_id,string election_id,string candidate_id,uint timestamp);\n\n    struct TransactionStruct {\n        address from;\n        address receiver;\n        string user_id;\n        string election_id;\n        string candidate_id;\n        uint timestamp;\n    }\n\n    TransactionStruct[] transactions;\n    uint256 public startTime;\n    uint256 public endTime;\n    address public admin;\n\n    constructor() {\n        admin = msg.sender;\n        // Default: election starts now and ends in 100 years for initial demo\n        startTime = block.timestamp;\n        endTime = block.timestamp + 3153600000; \n    }\n\n    modifier onlyDuringElection() {\n        require(block.timestamp >= startTime, \"Election has not started yet\");\n        require(block.timestamp <= endTime, \"Election has already ended\");\n        _;\n    }\n\n    modifier onlyAdmin() {\n        require(msg.sender == admin, \"Only admin can call this\");\n        _;\n    }\n\n    function setElectionPeriod(uint256 _startTime, uint256 _endTime) public onlyAdmin {\n        require(_startTime < _endTime, \"Start time must be before end time\");\n        startTime = _startTime;\n        endTime = _endTime;\n    }\n\n    function addToBlockchain(address payable receiver,string memory user_id,string memory election_id,string memory candidate_id) public onlyDuringElection {\n        transactionCounter+=1;\n        transactions.push(TransactionStruct(msg.sender,receiver,user_id,election_id,candidate_id,block.timestamp));\n\n        emit Transfer(msg.sender,receiver,user_id,election_id,candidate_id,block.timestamp);\n    }\n\n    function getAllTransaction() public view returns (TransactionStruct[] memory){\n        return transactions;\n    }\n\n    function getTransactionCount() public view returns (uint256){\n        return transactionCounter;\n    }\n\n}",
  "sourcePath": "C:\\Users\\MOHANA BODDAPU\\OneDrive\\Desktop\\MP 4-2\\E-Voting\\E-Voting-System-Using-Blockchain-master\\smart_contract\\contracts\\Transaction.sol",
  "compiler": {
    "name": "solc",
    "version": "0.8.0+commit.c7dfd78e.Emscripten.clang"
  },
  "schemaVersion": "3.4.16",
  "updatedAt": "2026-04-06T18:29:38.065Z",
  "networkType": "ethereum",
  "devdoc": {
    "kind": "dev",
    "methods": {},
    "version": 1
  },
  "userdoc": {
    "kind": "user",
    "methods": {},
    "version": 1
  }
}